:020000040000fa
:080000000004040000000000f0
:020000040000fa
:100008009a0400009a0400009a0400009a04000070
:100018009a0400009a0400009a0400009a04000060
:100028009a0400009a0400009a0400009a04000050
:100038009a0400009a0400009a0400009a04000040
:020000040000fa
:020000040000fa
:10080000ef9120000e7f22000e0188000000000002
:10081000000020000000e000020032000001200083
:10082000200288000c00070060e720000100200083
:1008300011000700000020000000e000020032006c
:100840000000020000000000cc05020000000000d3
:100850000040da000000fe004440a9000000200033
:100860000000e0000300320000002000a00188002a
:100870004440a80000000600910188008000780034
:100880000000eb0015003700e280400032a0b40009
:100890009101ba00e280400032a0b4009102ba0097
:1008a000e280400032a0b4000002eb00472bde00e3
:1008b000f507b200602ce10004003a000059eb009b
:1008c0008301e900fdff3e00040037006128e100dc
:1008d000010032000082eb00040007001101ba00a1
:1008e0000200e000e8ff3a00000006003159ba00bb
:1008f0008301e9000c0032002159ba008301e900ac
:10090000080032000400e00003003a00e2804000ea
:1009100032a0b400f5ff370011d9ba008301e90015
:10092000faff3a008100e800e180400032a0b40004
:10093000000006000040da000000fe000000fa009f
:1009400021e2a9009560a9009580a9008560a90011
:100950008580a9000080fa00000006000200fa006d
:10096000000f78008560a9008580a9001e0278002c
:100970000442780067426200674262006742620098
:100980000482fb00670262004c22dd004605800005
:10099000f5ff280085026300050272004405880007
:1009a000040720001e0262004422de000442780098
:1009b000674262000482fb00670262005605800005
:1009c00085ff2f0085026300050272005405880030
:1009d0009e027800688262004322de0004427800b2
:1009e000614262000482fb00610262004b22dd0072
:1009f000a6048000f57f2f008502630005027200c7
:100a0000a4048800040820001e0262004722de00c1
:100a100004427800614262000482fb0061026200cd
:100a20004c22dd00a6048000f5ff2e008502630045
:100a300005027200a40488000080fa00000006008d
:100a40000800fa0010079800210798003207980064
:100a50003e029000441188001e029000041188009c
:100a60002e0290001411880002003700341180001b
:100a7000044f78001411800061026200e00f520000
:100a8000faff3a008560a9000080fa000000060025
:020000040000fa
:100a90000000fa00c4ff2f0064198800c802a800f3
:100aa000c822a900cc22a800c042a900c442a800c4
:100ab000c842a800c862a900c9e2a800c9c2a9002a
:100ac000c062a900c462a900c8a2a900cca2a80063
:100ad000c9a2a800c962a800c942a900c9a2a90068
:100ae000cda2a900c8e2a9004535800004fe2f0070
:100af00004826200b400b30044358800553680009b
:100b000004fe2f00048262000430a00054368800e6
:100b100035368000f40f2e008482620004702000bd
:100b200005027200343688000080fa0000000600da
:100b30000400fa002535800004fe2f0004826200c4
:100b40000410a0002435880015368000f40f2e0014
:100b5000848262000430200005027200143688008e
:100b600076ff070004c02c00040f7800d4f528009d
:100b700014079800820020009e0090001e0078005c
:100b8000afff0700f0f72f0074ff07009560a90082
:100b90000080fa00000006000400fa000002eb00ea
:100ba000243a8800baff0700e1ff07002410200064
:100bb0000500200014408800254088001540800072
:100bc00024408000850078000400780002040700bb
:100bd0000002be00048fbe000410200005002000ab
:100be0001440880025408800154080002440800083
:100bf0008500780004007800f70307000002be00bb
:100c000034408800454088003640800047408000de
:100c1000f4ff2f00f50f2000840f5300858f5b0039
:100c200004003a0004402000050020003440880001
:100c3000454088000002eb00744088001e427800a6
:100c4000e04f52000e003a00053a800034ed2f00cc
:100c500004826200e00f520006003200344080003f
:100c6000454080000402780004007800e903070092
:100c700003003700f40f200005002000048fbe00a1
:100c800011e1a9001061a8008500a9009500a90044
:100c90001e03be00f40f20000500200006007800af
:100ca00007037800840378000502780007006000dd
:100cb0000402630005002000c022dd0004002000c3
:100cc0000403be006102b80004037300858373004f
:100cd000f40f200005002000840f5300858f5b0077
:100ce000190032001e4278000482fb00050020003b
:100cf0000640220006abb90006037800470f20002b
:100d000007a0b9008003780007034300840278003d
:100d100004402200042ab80005034300860278003c
:100d2000048fbe001e029000740888001e02780026
:100d3000640888000002eb00340888000002eb0021
:100d40005408880011e1a8001803070021e2a80058
:100d50008400200044118800044020001411880001
:100d60000082eb00c448880054552500d448880010
:100d70000b000700c44880006a024200c448880093
:100d8000d4488000a402b000d44888004e00070078
:100d90000440800004007800d7000700f0ff37000f
:100da0000600fa00030037000000000001003700d1
:100db0000000000064024700040078001e010700e4
:100dc000ce42900054c5b30084cf5200f6ff3a00e3
:100dd00011e1a90064024700040078001601070031
:100de000ce42900054c5b30084cf5200f0ff3a00c9
:100df0000042eb00044f78000002eb00140798005b
:100e00002a00370064024700040078000a01070046
:100e10004e4290000482fb00e50f520015003200a4
:100e200055052000850f520003003200e40f5200e8
:100e300006003200120037000042eb00044f780039
:100e40000002eb0014079800180037001e427800db
:100e50000442ea00044f7800000000001e427800bf
:100e6000e04f5200160032000082eb001407980099
:100e70000e0037006402470004007800ee0007000f
:100e80004e4290001e4f4200ce4290001e03900042
:100e90002481200004024300054a78001e029000cd
:100ea0000402e80014079800000000009e02900071
:100eb00064102000848f5200d2ff3600bdff37003f
:100ec0000080fa00000006000200fa0024812000e1
:100ed00014427800044f7800358120009542780054
:100ee000154798001e429000e04f520006003a005d
:100ef00021e2a900344080004540800004027800cf
:100f00000400780043030700448120001442780065
:100f10008442780026802000054b78005481200010
:100f2000144278008442780036802000054b780017
:100f300064812000144278008442780046802000ba
:100f4000054b78000042eb00844278005680200078
:100f5000054b780014408000254080008402780012
:100f6000c448800005027200c4488800d44880004c
:100f700004024200d44888001e4378000682fb0029
:100f8000cfa2de008600200007002000860f52005e
:100f9000878f5a0053003e000460010008003700ac
:100fa000120037001d0037002f0037004f003700b8
:100fb0004e0037004d0037004c0037003d00370031
:100fc00024c0b3000443780045812000864a78009d
:100fd00014c0b3000443780055812000864a78008d
:100fe0004400200004408800410037001e42900069
:100ff0000482fb001240800023408000040078003f
:10100000ad0007001e4290000482fb004222dd007a
:10101000650242000440880035003700c548800062
:101020001e4290000482fb0004825200c4488800e3
:101030001e4278008482fb00d44880000482420073
:10104000d44888001e4290000482fb0012408000b9
:101050002340800004007800cc000700140020002a
:1010600004408800220037001e4290008482fb006a
:10107000c448800004824200c4488800d5488000eb
:101080001e4378000682fb0004825200d448880088
:101090001e4290000482fb0012408000234080002a
:1010a00004007800ab010700140020000440880011
:1010b0000f003700c44880000402e900c4488800db
:1010c0001e4278008482fb00d448800004824200e3
:1010d000d4488800fa01070014002000044088006a
:1010e000030037000000000001003700000000008e
:1010f0000080fa00000006000600fa0020079800b1
:101100002342a80050c5b3003e00070050c5b300fd
:101110003c0007000042eb00244798000002eb006f
:10112000040f7800180037000060fe0024812000c2
:101130001e0242009442780035479800ae4290006b
:101140003e42900004c2420024479800be429000f4
:1011500054c5b30084cf5200060032003e429000d6
:10116000e44f5200030032003e429000e54f52002f
:1011700002003a0050c0b300220007003e40900039
:10118000200007001e0fe8002e0290009e0278004b
:10119000848f5200e4ff39002e4290000442ea009e
:1011a00024479800ae42900054c5b30084cf52004b
:1011b000060032002e429000e44f5200030032003d
:1011c0002e429000e54f520002003a0050c0b3009a
:1011d0000c0007002e4090000a00070040c0b3003a
:1011e0000800070000000000151180000410200016
:1011f00004826200e00f5200fbff32000080fa0020
:10120000000006000200fa00004f78000000000015
:10121000151180000420200004826200e00f5200bb
:10122000fbff3a009e4278000582fb0024118800f3
:101230000080fa00000006000400fa001007980081
:101240000100370000000000141180006e026200ef
:10125000e00f52000300320034118000044f780088
:101260002222a9001411800061026200e00f5200e6
:101270000600320034118000844278001e02900083
:10128000054a78000080fa0000000600250480006e
:101290000410200004826200e00f5200e9ff3200d7
:1012a000344080004540800004027800040078004b
:1012b00058020700e4ff37000c00fa0030079800de
:1012c00042079800530798000002eb00040f7800d3
:1012d00028003700ce0290005e0290008500780062
:1012e000040078003c0207000002be0014079800ca
:1012f000250798001e02780065034200ae42900068
:101300002481200004024300054a78001e02780070
:1013100066034200be429000248120000402430084
:10132000054a78001e02780067034200ce42900012
:101330002481200004024300054a78001e02780040
:1013400068034200de429000248120000402430032
:10135000054a78001e027800640f42004e02900099
:10136000de02900062024200e0824a0044079800d8
:10137000550798003e0290004222dd009e0f520069
:10138000d4ff3e000080fa00000006000e00fa00c4
:101390004007980052079800630798005e0290008b
:1013a000ee029000140798000002eb00040f780092
:1013b000e20037000060fe001e027800e5024200f5
:1013c000248120000482420014427800444798009f
:1013d0001e027800e60242002481200004824200be
:1013e00014427800544798001e027800e702420039
:1013f000248120000482420014427800644798004f
:101400001e027800e802420024812000048242008b
:1014100014427800744798001e027800640f42005e
:101420005e039000ee039000e4bf2a000500200058
:10143000840f5300858f5b0013003a002e03900049
:10144000be039000f4ff270005002000060078008e
:101450000703780084037800050278000700600025
:101460000402630005002000c022dd00040020000b
:101470000403be006102b800040373008583730097
:1014800026079800370798005e029000ee02900051
:10149000e00f5200e08f5a0019003a002e0390002e
:1014a000be039000f4ff2f00050020000600780026
:1014b00007037800840378000502780007006000c5
:1014c0000402630005002000c022dd0004002000ab
:1014d0000403be006102b800040373008583730037
:1014e0003640880047408800044020004500200026
:1014f00024079800350798001400200074408800e5
:101500005e039000ee039000240020000500200000
:10151000840f5300858f5b001e003a00304080002e
:10152000414080002e039000be039000f40f200085
:101530000500200006017800070378008403780086
:101540000502780007016100040263000500200025
:10155000c022dd00040020000403be006112b800b8
:101560000403730085837300c032dd000400200093
:101570000002420081824a003440880045408800d1
:101580006022b80024079800350798001400200056
:10159000744088005e039000ee0390000410200069
:1015a00005002000840f5300858f5b000c003a007b
:1015b00074408000e00f520005003200344080008b
:1015c0004540800024079800350798000400370044
:1015d0002e029000be0290003440880045408800f2
:1015e0005e039000ee039000241020000500200010
:1015f000840f5300858f5b0008003a002e02900094
:10160000be0290005440880065408800f4ff2f001f
:10161000f50f200024079800350798005e0390001e
:10162000ee039000f43f200005002000840f5300db
:10163000858f5b00070036005e039000ee0390008c
:101640000440210005002000840f5300858f5b00bb
:1016500009003600ae0390003e039000de029000c9
:101660006e029000870178000601780085007800fe
:101670000400780049010700c44880006402420069
:10168000c4488800d448800064025200d4488800ce
:10169000f40f20001e026200e00f520021003a0009
:1016a0001e029000840278009500b3004e02900064
:1016b000048252001e0242006502520084408800eb
:1016c00064b02a001e025200e44888005e039000c5
:1016d000ee039000f43f200005002000840f53002b
:1016e000858f5b00070036005e039000ee039000dc
:1016f0000440210005002000840f5300858f5b000b
:101700000800360010002400ff000700c4488000d5
:1017100065024200c4488800d44880006602520036
:10172000d44888005e029000ee02900062024200ff
:10173000e0824a0054079800650798004e02900026
:101740004822dd009e0f52001aff3e000080fa0082
:10175000000006000e00fa004007980052079800ab
:10176000630798000002eb00040f78005e0290000f
:10177000ee029000140798004b0037001e0fe8009f
:10178000c44880000402e800c4488800d4488000af
:101790000402e900d44888005e039000ee03900044
:1017a000f43f200005002000840f5300858f5b006c
:1017b000070036005e039000ee0390000440210015
:1017c00005002000840f5300858f5b002e0036003b
:1017d0001e029000840278009500b3004e02900033
:1017e000048242001e0242006702420084408800d8
:1017f000e4af2a001e025200e4488800de02900096
:101800006e02900022042400850078000400780015
:1018100006010700c448800067025200c4488800df
:10182000d448800063025200d44888005e039000d0
:10183000ee039000f43f200005002000840f5300c9
:10184000858f5b0010003e006022b80024079800de
:10185000350798001e029000840278009500b300be
:101860004e029000048242001e0242008440880022
:10187000b4af2a001e025200e44888002e009000f7
:10188000be009000690007005e039000ee03900028
:1018900004402000050020000602420087824a0022
:1018a00054079800650798004e0290009e02780049
:1018b000848f5200b1ff39000080fa00000006005a
:1018c0000200fa001440800025408000040f7800d8
:1018d0005540800064408000850178000401780054
:1018e000211020000000eb00ac0007009e027800f1
:1018f000698272006602520084408800c4b02a00e7
:10190000e4488800300024007f000700c4488000bd
:1019100065024200c4488800d44880006602520034
:10192000d44888000080fa00000006000200fa0097
:1019300020a2a800160037000060fe0025048000e9
:101940000410200004826200e00f52000500320003
:101950003440800045408000040278000400780094
:10196000ac0007001411800062026200e00f520018
:10197000010032002222a9001411800061026200dd
:10198000e00f52000200320034118000044f780052
:10199000051180000402200004826200e00f520062
:1019a000e5ff3a000080fa00000006000000fa009f
:1019b000153a8000f4fb2f000483620064042000c9
:1019c0007505200027742000844b7800854b780033
:1019d000864b78002535800004fe2f0004826200cb
:1019e0000410a0002435880015368000f40f2e0066
:1019f00084826200043020000502720014368800e0
:101a0000153a8000040420000503720064042000dd
:101a10007505200027742000844b7800854b7800e2
:101a2000864b78000080fa00000006000c00fa00e7
:101a3000400798005107980084408000040f780008
:101a4000e44880001407980004402000450020006e
:101a50002407980035079800ae0390003e039000dd
:101a6000ce0290005e0290008701780006017800a7
:101a7000850078000400780048000700c448800012
:101a800065024200c4488800d448800066025200c3
:101a9000d4488800300024001b0007006022b800f2
:101aa0002407980035079800ae0390003e0390008d
:101ab0004e0290008482e8005e0290008701780068
:101ac00006017800850078000400780033000700e4
:101ad0001e027800844088001e029000e4488800be
:101ae000c448800065024200c4488800d448800091
:101af00066025200d448880030002400020007002b
:101b00000080fa00000006000200fa00000f7800d2
:101b10001e027800043b8800c44880006502520021
:101b2000c4488800d448800066024200d448880037
:101b3000c548800084408000848f520011003a0024
:101b4000d5488000e4488000848f52000d003a00a0
:101b500054052000343b8800a40a2000343b880050
:101b600061e7a80000000000000000000000000085
:101b7000053b80000400280004826200e00f520050
:101b8000fbff3a000002eb0084408800a4aa2a0070
:101b9000e44888000080fa00000006000800fa000f
:101ba000000f78001107980022079800330798006b
:101bb0001e027800940188001e029000be02900070
:101bc000050abb001e029000ae029000058abb0011
:101bd0000080fa00000006000800fa0020079800c4
:101be000310798002e029000940188003e02900078
:101bf0001402ba00040f78003e0290001482ba006a
:101c0000140798001e02be000400be000080fa0007
:101c1000000006000200fa00000f78001e027800a3
:101c2000044001000080fa00000006000800fa00ed
:101c3000100798002107980032079800940180004f
:101c4000040f78001e029000940188003e0290006c
:101c5000043b88002e029000ae029000050abb00f3
:101c6000c448800067024200c4488800d44880000d
:101c700063024200d4488800c54880008440800048
:101c8000848f520011003a00d5488000e44880005b
:101c9000848f52000d003a0054052000343b880028
:101ca000a40a2000343b880061e7a800000000007f
:101cb0000000000000000000053b80000400280038
:101cc00004826200e00f5200fbff3a000002eb00ca
:101cd00084408800a4aa2a00e44888001e027800f4
:0c1ce000940188000080fa00000006005b
:020000040000fa
:101cec0000080000180100000000000018090000a6
:101cfc000600000002000000ffff550055aaaa00d4
:041d0c0000000000d3
:020000040000fa
:020000040001f9
:0457f000ffff0000b7
:020000040000fa
:020000040001f9
:0457f8008f99000085
:020000040000fa
:020000040001f9
:0457fc007f3f0000eb
:00000001FF
