:020000040000fa
:080000000014040000000000e0
:020000040000fa
:100008009a1400009a1400009a1400009a14000030
:100018009a1400009a1400009a1400009a14000020
:100028009a1400009a1400009a1400009a14000010
:100038009a1400009a1400009a1400009a14000000
:020000040000fa
:020000040000fa
:102800006f8e20000e7f22000e0188000000000065
:10281000000020000000e000020032000001200063
:10282000200288000c000700a0c421000100200045
:1028300011000700000020000000e000020032004c
:102840000000020000000000641d02000000000003
:102850000040da000000fe004440a900a000200073
:102860000000e0000300320000002000a00188000a
:102870004440a80000000600910188008000780014
:102880000000eb0015003700e280400032a0b400e9
:102890009101ba00e280400032a0b4009102ba0077
:1028a000e280400032a0b4000002eb00472bde00c3
:1028b000f507b200602ce10004003a000059eb007b
:1028c0008301e900fdff3e00040037006128e100bc
:1028d000010032000082eb00040007001101ba0081
:1028e0000200e000e8ff3a00000006003159ba009b
:1028f0008301e9000c0032002159ba008301e9008c
:10290000080032000400e00003003a00e2804000ca
:1029100032a0b400f5ff370011d9ba008301e900f5
:10292000faff3a008100e800e180400032a0b400e4
:10293000000006000040da000000fe000a00fa0075
:10294000e20f500022003e0024478000e10f5200b9
:102950000600320087232000462320002423200085
:1029600005232000e08f530004003a008722200056
:1029700046222000242220000522200000002800fa
:102980001500600003003a00800b78000700280063
:10299000958a7300054020009482620001003a008d
:1029a00014a0a0008202780006003700940378008b
:1029b0000710b200fdff3200b103fb00070b7800e7
:1029c0008502e900e08f5200f8ff3a000800370066
:1029d00034002000c0bf9f00e2bf9f00b4bf9f0033
:1029e000d1bf9f006a8057008d0307006fb9970021
:1029f000020078000080fa00000006000000fa00e3
:102a000021e2a9009560a9009580a9008560a90030
:102a10008580a9000080fa00000006000200fa008c
:102a2000000f78008560a9008580a9001e0278004b
:102a300004427800674262006742620067426200b7
:102a40000482fb00670262004c22dd004605800024
:102a5000f5ff280085026300050272004405880026
:102a6000040720001e0262004422de0004427800b7
:102a7000674262000482fb00670262005605800024
:102a800085ff2f008502630005027200540588004f
:102a90009e027800688262004322de0004427800d1
:102aa000614262000482fb00610262004b22dd0091
:102ab000a6048000f57f2f008502630005027200e6
:102ac000a4048800040820001e0262004722de00e1
:102ad00004427800614262000482fb0061026200ed
:102ae0004c22dd00a6048000f5ff2e008502630065
:102af00005027200a40488000080fa0000000600ad
:102b00000800fa0010079800210798003207980083
:102b10003e029000441188001e02900004118800bb
:102b20002e0290001411880002003700341180003a
:102b3000044f78001411800061026200e00f52001f
:102b4000faff3a008560a9000080fa000000060044
:102b5000c08a20000000fa0068815700cfb89700b3
:102b6000020007000080fa0000000600ef03b0003a
:102b7000889fbe008a9fbe008c9fbe000006780022
:102b80008e1f78008006eb00e1af9f0082b79f00a8
:102b900091023700efa8970054c2b3008100e8000b
:102ba000e1af9f00844f500006003a000102780018
:102bb0008042eb0002c3b30001c2b300b0c2b30055
:102bc0000e0037003c0290000404b2000400320002
:102bd0001c027800004a7800040ee8000500370067
:102be0000000fb008c00780087020700e10f400026
:102bf000790232008d06e80077023700040378007e
:102c0000d3c2b300b443780083cf5300090032002d
:102c100005003c0081cf53000800320080cf5300f4
:102c20000c003a000700370082cf530009003a0039
:102c3000060037000534a000f0ff37000504a000af
:102c4000eeff37000514a000ecff37000524a000bc
:102c5000eaff370062826200010032000504a10031
:102c600068826200010032000524a1000702fb0017
:102c70000403b100e90f52000c003e008603780007
:102c80000002eb006a20b9003702fb000403b10028
:102c900007037800000242001700fb000003b100a8
:102ca000e90f5000f7ff3600080037000002eb0084
:102cb000a0c2b30080cf530004003a008fb3970046
:102cc0000603e8004702780087b79f000007eb0083
:102cd000e7c2b30096cf130009003a00e4c35300e3
:102ce000d6cf130002003200860378000a003700b6
:102cf0000fb097000603e8004007780080b79f00f8
:102d00008603780031c6b300c0c6b30008003700a0
:102d10006a71b90002074000070378003700fb0022
:102d20000003b100e90f5000f9ff3600f4ff37004f
:102d30000701780033c7b30032437800820378007c
:102d4000834f53001a00320008003c00814f5300ab
:102d50007b003200804f53000c003200e2af9f0036
:102d6000e04f53002102320097003700e2af9f008e
:102d700057c7b300874f530098003200e3c34300a6
:102d8000874f530090003a000600370070816200c0
:102d900006c1b300010032000043eb0086c272009e
:102da000e3ff3700e6779f000574a0008e00370030
:102db0008fb3970036c7b300e2af9f00e6779f005e
:102dc0004703780087b79f0006047800e00f5300a0
:102dd00001003a00488c2000880378000003eb00d3
:102de000010037000603e80067407b00e04f500019
:102df000fcff3a0086047800e00f57000300320021
:102e0000890f5700010031008e0478000007eb00a5
:102e1000890f52000100360009075200e882620063
:102e200004c2b30095b79f0011003200280037009c
:102e3000bc0290000504b200040032009c0278003d
:102e4000844a7800050ee8000700370084bf9f0021
:102e50008c00780000022000eb0107000fba9700f9
:102e6000e10f4000010032008d06e8000e07e90086
:102e7000e00f5700eeff3a000087eb001400370028
:102e80003c0290000404b2000900320008027800fd
:102e90001c037800b4427800054b780004047800e5
:102ea000060ee800e0cf520008003a0008003700a4
:102eb000080278008c0078003400fb0004047800dd
:102ec000d1010700e10f4000010032008d06e8004b
:102ed000090278008404e900e00f5200e8ff3a009c
:102ee0001fb0970004c2b300e00f500011003a0079
:102ef000b9013700bc0290000504b20004003200a2
:102f00009c027800844a7800050ee800070037002c
:102f100084bf9f008c00780000022000ba010700e7
:102f20000fba9700e10f4000010032008d06e80063
:102f30000e07e900e00f5700eeff3a00a601370048
:102f40008fb09700e2af9f00f083620041037800ea
:102f500081b79f0006007800cf80de000101780075
:102f60008201780090b79f00a1b79f00b2b79f0081
:102f7000c3b79f004800de00480bdd00000073006f
:102f8000e0779f00e08f530009003200e04f5000cf
:102f900007003200e14f400005003200afe3970028
:102fa000f0779f00877f9f002900200003003700f3
:102fb0002fe0970019002000f0779f0078fb2f008a
:102fc0000f0444008cff3700e6779f0068fb2f005a
:102fd0000f0444001900200087ff3700e6779f00a8
:102fe00006ccb30086c272008582fb00f0806200ce
:102ff00095b79f00f19f9f000e0032008fb297009f
:103000000003eb004501be008003eb00d2a79f0048
:10301000e3a79f00f6a79f0087af9f0085b79f009b
:103020005fa49700efa497007fa597008fad97004e
:10303000060037000fb097004004780080b79f006b
:10304000090020000a0020000b002000e00f5700bc
:1030500007003a001e002000e00f5400e08f5c00e3
:10306000e00f5d00e08f5d00010032000007eb0023
:103070009fb0970005082000010cb20091af9f009f
:10308000858f500010003200050c2000858f500005
:1030900021003a008680200015c0b3003600be0033
:1030a0003601be000040e10001c8e10002d0e100ad
:1030b00003d8e100170039008542e800f4cf520040
:1030c000f6ff3a001300370015c0b30000012000de
:1030d000010020006011b8000040e10001c8e100db
:1030e00002d0e10003d8e1000a00390046002000c8
:1030f0000000d0008180d2000281d2008381d20002
:103100000603e900faff3a008542e800f0cf5200da
:10311000f1ff3a00e5779f00ef7397008702fb000d
:103120008e8f520002003d00ee779f0003003700b3
:10313000850f570001003d0005077800e00f5200a1
:10314000040032009fb09700e3826000010032006b
:103150000402e9006f7197008001eb008202fb001e
:10316000f3af9f00850f5200020034008502520029
:10317000f5af9f009fb29700648262004600320064
:1031800005037800e202630061026300e08f5200f1
:1031900011003200bc0290000504b20008003200a9
:1031a0009c027800b6c2b300e00f5200010032006a
:1031b00006c3e800864a7800050ee80015003700cf
:1031c000b0022000e00f5200010032000080e80051
:1031d0008c0078000c003700e00f52000e00320027
:1031e0003c0290000404b200050032001c0278008a
:1031f00005c2b300054a7800040ee8000500370058
:103200008c00780000022000ff000700e10f400062
:10321000010032008d06e800ffab9700e08f5300fd
:1032200065003200a8af9f00b9af9f00caaf9f00f2
:10323000dbaf9f0004c3b30087047800bc0290009a
:103240000504b200040032009c027800844a780031
:10325000050ee8000700370084bf9f008c0078004f
:1032600000032000e80007000fba9700e10f4000bc
:10327000010032008d06e8008904e900efff3a0002
:10328000f9af9f002fac9700bfac97004fad9700f0
:10329000dfad970048003700ffa89700e08f50008f
:1032a0001f0032001fb19700680261001c003a0045
:1032b000a8af9f00b9af9f00caaf9f00dbaf9f00d0
:1032c000ffac970004c2b300bc0290000504b2003a
:1032d000040032009c027800844a7800050ee80061
:1032e0000700370084bf9f008c0078000002200098
:1032f000c50007000fba9700e10f4000010032003f
:103300008d06e8008904e900efff3a00f9af9f005d
:103310002fac9700bfac97004fad9700dfad970083
:103320009fb09700e282600061826000e08f5200ef
:1033300011003200bc0290000504b2000800320007
:103340009c027800b6c2b300e00f520001003200c8
:1033500006c3e800864a7800050ee800150037002d
:10336000b0022000e00f5200010032000080e800af
:103370008c0078000c003700e00f52000e00320085
:103380003c0290000404b200050032001c027800e8
:1033900005c2b300054a7800040ee80005003700b6
:1033a0008c0078000002200097000700e10f400029
:1033b000010032008d06e8008e02e9000480200042
:1033c0004229dd00c32add0082a79f00048242005b
:1033d0005d0037000e07e9009fa997000408200050
:1033e000848f510034003200040c2000848f51007f
:1033f0003f003a00ff9a9700e08f5200220032000f
:103400002fa89700d89f9f00e99f9f003002be0021
:103410002003be000800be000401be0084bf9f0060
:10342000d5b79f00e6b79f00f7b79f00fe000700e3
:103430000fba9700e0779f00dfb297000000fb0013
:10344000cf80de000401be00070107005f999700ee
:10345000ef9997000002eb000001510081815900b3
:10346000c4a79f0092a79f00a3a79f008001eb0025
:10347000b3a79f001fa49700afa497003fa5970094
:10348000cfa5970008003700afaa97001502780073
:10349000110009000484d800a400200011000900d4
:1034a0000480d800e1779f006f7397000643b00057
:1034b000e6779f000e0037000802be000a03be0038
:1034c0000fa09700b18c20000000e9000500330038
:1034d0008703d1000683d3008582d3000482d30002
:1034e000f9ff37006f02620061427a00e4779f00c3
:1034f0003c0290000404b200070032009c027800f5
:103500006f729700844a7800050ee800e04f520081
:1035100007003a00070037006f7197008c007800b1
:103520000200fb0038000700e10f400001003200fc
:103530008d06e8008fa19700e481510083a79f00ca
:103540002faa970068025200a4af9f00e00f570017
:10355000a0ff3a009fb29700688262001e0032000e
:103560007fab9700e00f53001b0034000802be0041
:103570000a03be00ffac97000ec2b3003c009000ef
:103580000004b200040032001c0078000e487800ed
:10359000000ee8000d00370084bf9f00d5b79f00e4
:1035a000e6b79f00f7b79f008c007800000220006c
:1035b000150007000fba9700dfb297006fb39700ae
:1035c000ffb39700e10f4000010032008d06e800d4
:1035d0008904e900e9ff3a00efab97001740780053
:1035e000e0779f00e04f50006afd3a004f077800f7
:1035f0000d0078004f06be004f05be004f04be0010
:10360000ef03b10000000600889fbe0001047800af
:103610008084eb0038029000e20262003b0032003e
:1036200004037800980290000620b20002003a00dd
:10363000e08f520035003a000490a000800478002a
:1036400034049800f90fb200e08f520002003a00f3
:10365000a8029000050c7800ea8f540005003a009b
:103660000408b20003003a0088007800d00020006f
:10367000e5ff070018029000d8029000850f520065
:103680000b0032000402e80015c0b30014049800d7
:1036900018027800094a7800040ce800e48d200044
:1036a000054a7800ea8f540018003a0005003700f8
:1036b000094078008800780017000700800478002f
:1036c00012003700380290000410b2000f003200e0
:1036d00018019000a80090004800900097fc070097
:1036e00018029000840f500004003200380290004d
:1036f0000403b300340498008084eb000002eb0064
:103700001404980028029000040c78000900780046
:103710004f04be00000006000200fa00889fbe00b1
:1037200001047800a0ff9f00380290008402780016
:103730000504b200020032000000fb003500370033
:10374000e202620005003a000403b3001504980089
:10375000340498000080eb002e003700d80490005d
:10376000e08f540006003a0012002000e680570067
:103770004800900071fc07001904980023003700ee
:10378000a8029000e08f520008003a00258e200029
:103790000430a00025049800050c7800340498003b
:1037a0002500200055049800150498001801900089
:1037b000a80090004800900060fc070028029000dc
:1037c0008082eb0015049800affa9700054a780054
:1037d000040ce8002ffa9700ea4f52000b003a0061
:1037e000380290000410b200080032001801900066
:1037f000a80090004800900050fc07000002eb0079
:10380000a802900014049800050c78002ffa970085
:103810000400fb004f04be000080fa000000060018
:1038200000c0da00000006006022b8000602200096
:103830000000d0008180d2000482d2008582d200b4
:103840000000a0000202520083825a0003003100ef
:103850000202420083824a000000a1000603e90040
:10386000f3ff3a0000000600020ab900001bb9008d
:103870000200b80081004200810043000000060001
:020000040000fa
:10388000686500006c6c00006f20000021210000c2
:043890000000000034
:020000040000fa
:10389400a00800002400000002000000e00800006e
:1038a40000e008000900000000020000e208000037
:1038b40000e208000e020100000000000000000009
:1038c400000000000602020000000000dc08000006
:1038d4000200000002000000a0080000de08000052
:1038e4000200000000000000e008000002000000e8
:1038f40000000000e20800000200000000000000d8
:10390400c40800001800000002000000286e7500c2
:103914006c6c290000303100323334003536370006
:1039240038396100626364006566000000080000c5
:10393400a0000000020000000100000000000000e0
:1039440000000a0000000000000000000064000005
:103954000000000000000000e80300000000000078
:1039640000001000270000000000000000a08600f6
:10397400010000000000000040420f0000000000b1
:103984000000800096980000000000000000e100a4
:10399400f50500000000000000ca9a003b0000008a
:1039a40000000000e40b5400020000000000e800e6
:1039b40076481700000000000010a500d4e80000bd
:1039c40000000000a0724e00180900000000400032
:1039d4007a10f3005a0000000080c600a47e8d0017
:1039e4000300000000c16f00f28623000000000005
:1039f4008a5d78004563010000006400a7b3b60047
:103a0400e00d000000e889000423c7008a000000dc
:103a1400e4080000020000000200000001000000b1
:043a2400000000009e
:020000040000fa
:103a28000000fa00c4ff2f0064198800c802a8002b
:103a3800c822a900cc22a800c042a900c442a800fc
:103a4800c842a800c862a900c9e2a800c9c2a90062
:103a5800c062a900c462a900c8a2a900cca2a8009b
:103a6800c9a2a800c962a800c942a900c9a2a900a0
:103a7800cda2a900c8e2a9004535800004fe2f00a8
:103a880004826200b400b3004435880055368000d3
:103a980004fe2f00048262000430a000543688001f
:103aa80035368000f40f2e008482620004702000f6
:103ab80005027200343688000080fa000000060013
:103ac8000400fa000002eb00243a88002e000700e8
:103ad800d3ff07002535800004fe2f000482620012
:103ae8000410a0002435880015368000f40f2e003d
:103af80084826200043020000502720014368800b7
:103b0800bcfb070004c02c00040f7800d4f5280083
:103b180014079800820020009e0090001e00780084
:103b2800f5fb0700f0f72f00bafb07009560a90026
:103b380000402200410f20000500070004c42900ae
:103b4800841f780000fc07008f87e900f8ff370022
:020000040000fa
:103b5800f03fb1000180b10006003500ee03090016
:103b680000000000403fb1000180b100fbff3d00b4
:103b78001000b000203fb0000200350000800900ae
:083b880000000000000006002f
:020000040000fa
:103b90000000fa000002eb00243a88000080fa00de
:043ba000000006001b
:020000040000fa
:020000040001f9
:0457f000ffff0000b7
:020000040000fa
:020000040001f9
:0457f8008f99000085
:020000040000fa
:020000040001f9
:0457fc007f3f0000eb
:00000001FF
